:0A020500C0F9A4B0999282F880902D
:06000300010900010800E4
:040184007F017E0079
:100188007D017C00C3ED9FEE6480F8EC648098509C
:10019800167B017A000BBB00010AEB647B4A70F501
:0701A8000DBD00010C80DD1C
:0101AF00222D
:1001F2005389F0438901D2A9D2AF758CFC758A1854
:03020200D28C2279
:03000B0002000EE2
:10000E00C0E0C0F0C083C082C0D075D000C000C0B8
:0D001E0001C002C003C004C005C006C00739
:10002B00E4F9E50875F00A1201B0AFF0EF3395E093
:10003B00FE74052FF58274023EF583E493F5A0C29E
:10004B00867F057E00120188D286E50875F00A12BC
:10005B0001B0FF3395E0FE74052FF58274023EF577
:10006B0083E493F5A0C2877F057E00120188D287B7
:0A007B0009B905AE758CFC758A18F2
:10008500D007D006D005D004D003D002D001D000CF
:0B009500D0D0D082D083D0F0D0E03279
:10012C0030B22512018420B2FD30B11C12018420A2
:10013C00B1FD0509C3E509648094805003E4F50919
:10014C00E509B4640375096330B12512018420B14B
:10015C00FD30B21C12018420B2FD1509C3E50964FF
:10016C008094805003E4F509E509B46403750963D0
:08017C00AF09EF3395E0FE220C
:1001D200E4F58075A0FFC284C2B2C2B11201F2126C
:1001E200012C8F08E5087004C28480F3D28480EF6A
:030000000200A05B
:0C00A000787FE4F6D8FD7581090200E7C6
:1001B000C2D530F707B2D563F0FF05F030E70CB2D7
:1001C000D5F4048463F0FF05F080018430D502F497
:0201D000042207
:1000AC000201D2E493A3F8E493A34003F68001F297
:1000BC0008DFF48029E493A3F85407240CC8C33355
:1000CC00C4540F4420C8834004F456800146F6DF24
:1000DC00E4800B0102040810204080900003E47EB1
:1000EC00019360BCA3FF543F30E509541FFEE49319
:1000FC00A360010ECF54C025E060A840B8E493A3E0
:10010C00FAE493A3F8E493A3C8C582C8CAC583CA0A
:10011C00F0A3C8C582C8CAC583CADFE9DEE780BEC2
:0100090000F6
:00000001FF
